{
	"data": {
		"bytecode": {
			"linkReferences": {},
			"object": "60a0604052736168499c0cffcacd319c818142124b7a15e857ab600260006101000a81548173ffffffffffffffffffffffffffffffffffffffff021916908373ffffffffffffffffffffffffffffffffffffffff1602179055507301be23585060835e02b77ef475b0cc51aa1e0709600360006101000a81548173ffffffffffffffffffffffffffffffffffffffff021916908373ffffffffffffffffffffffffffffffffffffffff1602179055507fd89b2bf150e3b9e13446986e571fb9cab24b13cea0a43ea20a6049a85cc807cc60001b600455620186a0600560006101000a81548163ffffffff021916908363ffffffff1602179055506003600560046101000a81548161ffff021916908361ffff1602179055506002600560066101000a81548163ffffffff021916908363ffffffff16021790555034801561014557600080fd5b50604051610bab380380610bab8339818101604052810190610167919061030c565b600260009054906101000a900473ffffffffffffffffffffffffffffffffffffffff168073ffffffffffffffffffffffffffffffffffffffff1660808173ffffffffffffffffffffffffffffffffffffffff1660601b8152505050600260009054906101000a900473ffffffffffffffffffffffffffffffffffffffff166000806101000a81548173ffffffffffffffffffffffffffffffffffffffff021916908373ffffffffffffffffffffffffffffffffffffffff160217905550600360009054906101000a900473ffffffffffffffffffffffffffffffffffffffff16600160006101000a81548173ffffffffffffffffffffffffffffffffffffffff021916908373ffffffffffffffffffffffffffffffffffffffff16021790555033600860006101000a81548173ffffffffffffffffffffffffffffffffffffffff021916908373ffffffffffffffffffffffffffffffffffffffff16021790555080600160146101000a81548167ffffffffffffffff021916908367ffffffffffffffff16021790555050610369565b60008151905061030681610352565b92915050565b6000602082840312156103225761032161034d565b5b6000610330848285016102f7565b91505092915050565b600067ffffffffffffffff82169050919050565b600080fd5b61035b81610339565b811461036657600080fd5b50565b60805160601c61081e61038d6000396000818160f00152610144015261081e6000f3fe608060405234801561001057600080fd5b50600436106100575760003560e01c80631fe543e31461005c578063939a194614610078578063e0c8628914610096578063e89e106a146100a0578063f6eaffc8146100be575b600080fd5b61007660048036038101906100719190610507565b6100ee565b005b6100806101ae565b60405161008d9190610639565b60405180910390f35b61009e6101d5565b005b6100a8610336565b6040516100b59190610639565b60405180910390f35b6100d860048036038101906100d391906104ad565b61033c565b6040516100e59190610639565b60405180910390f35b7f000000000000000000000000000000000000000000000000000000000000000073ffffffffffffffffffffffffffffffffffffffff163373ffffffffffffffffffffffffffffffffffffffff16146101a057337f00000000000000000000000000000000000000000000000000000000000000006040517f1cf993f40000000000000000000000000000000000000000000000000000000081526004016101979291906105bd565b60405180910390fd5b6101aa8282610360565b5050565b600060066000815481106101c5576101c461074e565b5b9060005260206000200154905090565b600860009054906101000a900473ffffffffffffffffffffffffffffffffffffffff1673ffffffffffffffffffffffffffffffffffffffff163373ffffffffffffffffffffffffffffffffffffffff161461022f57600080fd5b60008054906101000a900473ffffffffffffffffffffffffffffffffffffffff1673ffffffffffffffffffffffffffffffffffffffff16635d3b1d30600454600160149054906101000a900467ffffffffffffffff16600560049054906101000a900461ffff16600560009054906101000a900463ffffffff16600560069054906101000a900463ffffffff166040518663ffffffff1660e01b81526004016102dc9594939291906105e6565b602060405180830381600087803b1580156102f657600080fd5b505af115801561030a573d6000803e3d6000fd5b505050506040513d601f19601f8201168201806040525081019061032e91906104da565b600781905550565b60075481565b6006818154811061034c57600080fd5b906000526020600020016000915090505481565b806006908051906020019061037692919061037b565b505050565b8280548282559060005260206000209081019282156103b7579160200282015b828111156103b657825182559160200191906001019061039b565b5b5090506103c491906103c8565b5090565b5b808211156103e15760008160009055506001016103c9565b5090565b60006103f86103f384610679565b610654565b9050808382526020820190508285602086028201111561041b5761041a6107b1565b5b60005b8581101561044b57816104318882610483565b84526020840193506020830192505060018101905061041e565b5050509392505050565b600082601f83011261046a576104696107ac565b5b813561047a8482602086016103e5565b91505092915050565b600081359050610492816107d1565b92915050565b6000815190506104a7816107d1565b92915050565b6000602082840312156104c3576104c26107bb565b5b60006104d184828501610483565b91505092915050565b6000602082840312156104f0576104ef6107bb565b5b60006104fe84828501610498565b91505092915050565b6000806040838503121561051e5761051d6107bb565b5b600061052c85828601610483565b925050602083013567ffffffffffffffff81111561054d5761054c6107b6565b5b61055985828601610455565b9150509250929050565b61056c816106a5565b82525050565b61057b816106b7565b82525050565b61058a816106c1565b82525050565b610599816106ef565b82525050565b6105a8816106f9565b82525050565b6105b781610709565b82525050565b60006040820190506105d26000830185610563565b6105df6020830184610563565b9392505050565b600060a0820190506105fb6000830188610572565b61060860208301876105ae565b6106156040830186610581565b610622606083018561059f565b61062f608083018461059f565b9695505050505050565b600060208201905061064e6000830184610590565b92915050565b600061065e61066f565b905061066a828261071d565b919050565b6000604051905090565b600067ffffffffffffffff8211156106945761069361077d565b5b602082029050602081019050919050565b60006106b0826106cf565b9050919050565b6000819050919050565b600061ffff82169050919050565b600073ffffffffffffffffffffffffffffffffffffffff82169050919050565b6000819050919050565b600063ffffffff82169050919050565b600067ffffffffffffffff82169050919050565b610726826107c0565b810181811067ffffffffffffffff821117156107455761074461077d565b5b80604052505050565b7f4e487b7100000000000000000000000000000000000000000000000000000000600052603260045260246000fd5b7f4e487b7100000000000000000000000000000000000000000000000000000000600052604160045260246000fd5b600080fd5b600080fd5b600080fd5b600080fd5b6000601f19601f8301169050919050565b6107da816106ef565b81146107e557600080fd5b5056fea2646970667358221220e3c1134a9431d14cc1e32bf28ad1869b84ad89662249841197b3b18cf6d2851e64736f6c63430008070033",
			"opcodes": "PUSH1 0xA0 PUSH1 0x40 MSTORE PUSH20 0x6168499C0CFFCACD319C818142124B7A15E857AB PUSH1 0x2 PUSH1 0x0 PUSH2 0x100 EXP DUP2 SLOAD DUP2 PUSH20 0xFFFFFFFFFFFFFFFFFFFFFFFFFFFFFFFFFFFFFFFF MUL NOT AND SWAP1 DUP4 PUSH20 0xFFFFFFFFFFFFFFFFFFFFFFFFFFFFFFFFFFFFFFFF AND MUL OR SWAP1 SSTORE POP PUSH20 0x1BE23585060835E02B77EF475B0CC51AA1E0709 PUSH1 0x3 PUSH1 0x0 PUSH2 0x100 EXP DUP2 SLOAD DUP2 PUSH20 0xFFFFFFFFFFFFFFFFFFFFFFFFFFFFFFFFFFFFFFFF MUL NOT AND SWAP1 DUP4 PUSH20 0xFFFFFFFFFFFFFFFFFFFFFFFFFFFFFFFFFFFFFFFF AND MUL OR SWAP1 SSTORE POP PUSH32 0xD89B2BF150E3B9E13446986E571FB9CAB24B13CEA0A43EA20A6049A85CC807CC PUSH1 0x0 SHL PUSH1 0x4 SSTORE PUSH3 0x186A0 PUSH1 0x5 PUSH1 0x0 PUSH2 0x100 EXP DUP2 SLOAD DUP2 PUSH4 0xFFFFFFFF MUL NOT AND SWAP1 DUP4 PUSH4 0xFFFFFFFF AND MUL OR SWAP1 SSTORE POP PUSH1 0x3 PUSH1 0x5 PUSH1 0x4 PUSH2 0x100 EXP DUP2 SLOAD DUP2 PUSH2 0xFFFF MUL NOT AND SWAP1 DUP4 PUSH2 0xFFFF AND MUL OR SWAP1 SSTORE POP PUSH1 0x2 PUSH1 0x5 PUSH1 0x6 PUSH2 0x100 EXP DUP2 SLOAD DUP2 PUSH4 0xFFFFFFFF MUL NOT AND SWAP1 DUP4 PUSH4 0xFFFFFFFF AND MUL OR SWAP1 SSTORE POP CALLVALUE DUP1 ISZERO PUSH2 0x145 JUMPI PUSH1 0x0 DUP1 REVERT JUMPDEST POP PUSH1 0x40 MLOAD PUSH2 0xBAB CODESIZE SUB DUP1 PUSH2 0xBAB DUP4 CODECOPY DUP2 DUP2 ADD PUSH1 0x40 MSTORE DUP2 ADD SWAP1 PUSH2 0x167 SWAP2 SWAP1 PUSH2 0x30C JUMP JUMPDEST PUSH1 0x2 PUSH1 0x0 SWAP1 SLOAD SWAP1 PUSH2 0x100 EXP SWAP1 DIV PUSH20 0xFFFFFFFFFFFFFFFFFFFFFFFFFFFFFFFFFFFFFFFF AND DUP1 PUSH20 0xFFFFFFFFFFFFFFFFFFFFFFFFFFFFFFFFFFFFFFFF AND PUSH1 0x80 DUP2 PUSH20 0xFFFFFFFFFFFFFFFFFFFFFFFFFFFFFFFFFFFFFFFF AND PUSH1 0x60 SHL DUP2 MSTORE POP POP POP PUSH1 0x2 PUSH1 0x0 SWAP1 SLOAD SWAP1 PUSH2 0x100 EXP SWAP1 DIV PUSH20 0xFFFFFFFFFFFFFFFFFFFFFFFFFFFFFFFFFFFFFFFF AND PUSH1 0x0 DUP1 PUSH2 0x100 EXP DUP2 SLOAD DUP2 PUSH20 0xFFFFFFFFFFFFFFFFFFFFFFFFFFFFFFFFFFFFFFFF MUL NOT AND SWAP1 DUP4 PUSH20 0xFFFFFFFFFFFFFFFFFFFFFFFFFFFFFFFFFFFFFFFF AND MUL OR SWAP1 SSTORE POP PUSH1 0x3 PUSH1 0x0 SWAP1 SLOAD SWAP1 PUSH2 0x100 EXP SWAP1 DIV PUSH20 0xFFFFFFFFFFFFFFFFFFFFFFFFFFFFFFFFFFFFFFFF AND PUSH1 0x1 PUSH1 0x0 PUSH2 0x100 EXP DUP2 SLOAD DUP2 PUSH20 0xFFFFFFFFFFFFFFFFFFFFFFFFFFFFFFFFFFFFFFFF MUL NOT AND SWAP1 DUP4 PUSH20 0xFFFFFFFFFFFFFFFFFFFFFFFFFFFFFFFFFFFFFFFF AND MUL OR SWAP1 SSTORE POP CALLER PUSH1 0x8 PUSH1 0x0 PUSH2 0x100 EXP DUP2 SLOAD DUP2 PUSH20 0xFFFFFFFFFFFFFFFFFFFFFFFFFFFFFFFFFFFFFFFF MUL NOT AND SWAP1 DUP4 PUSH20 0xFFFFFFFFFFFFFFFFFFFFFFFFFFFFFFFFFFFFFFFF AND MUL OR SWAP1 SSTORE POP DUP1 PUSH1 0x1 PUSH1 0x14 PUSH2 0x100 EXP DUP2 SLOAD DUP2 PUSH8 0xFFFFFFFFFFFFFFFF MUL NOT AND SWAP1 DUP4 PUSH8 0xFFFFFFFFFFFFFFFF AND MUL OR SWAP1 SSTORE POP POP PUSH2 0x369 JUMP JUMPDEST PUSH1 0x0 DUP2 MLOAD SWAP1 POP PUSH2 0x306 DUP2 PUSH2 0x352 JUMP JUMPDEST SWAP3 SWAP2 POP POP JUMP JUMPDEST PUSH1 0x0 PUSH1 0x20 DUP3 DUP5 SUB SLT ISZERO PUSH2 0x322 JUMPI PUSH2 0x321 PUSH2 0x34D JUMP JUMPDEST JUMPDEST PUSH1 0x0 PUSH2 0x330 DUP5 DUP3 DUP6 ADD PUSH2 0x2F7 JUMP JUMPDEST SWAP2 POP POP SWAP3 SWAP2 POP POP JUMP JUMPDEST PUSH1 0x0 PUSH8 0xFFFFFFFFFFFFFFFF DUP3 AND SWAP1 POP SWAP2 SWAP1 POP JUMP JUMPDEST PUSH1 0x0 DUP1 REVERT JUMPDEST PUSH2 0x35B DUP2 PUSH2 0x339 JUMP JUMPDEST DUP2 EQ PUSH2 0x366 JUMPI PUSH1 0x0 DUP1 REVERT JUMPDEST POP JUMP JUMPDEST PUSH1 0x80 MLOAD PUSH1 0x60 SHR PUSH2 0x81E PUSH2 0x38D PUSH1 0x0 CODECOPY PUSH1 0x0 DUP2 DUP2 PUSH1 0xF0 ADD MSTORE PUSH2 0x144 ADD MSTORE PUSH2 0x81E PUSH1 0x0 RETURN INVALID PUSH1 0x80 PUSH1 0x40 MSTORE CALLVALUE DUP1 ISZERO PUSH2 0x10 JUMPI PUSH1 0x0 DUP1 REVERT JUMPDEST POP PUSH1 0x4 CALLDATASIZE LT PUSH2 0x57 JUMPI PUSH1 0x0 CALLDATALOAD PUSH1 0xE0 SHR DUP1 PUSH4 0x1FE543E3 EQ PUSH2 0x5C JUMPI DUP1 PUSH4 0x939A1946 EQ PUSH2 0x78 JUMPI DUP1 PUSH4 0xE0C86289 EQ PUSH2 0x96 JUMPI DUP1 PUSH4 0xE89E106A EQ PUSH2 0xA0 JUMPI DUP1 PUSH4 0xF6EAFFC8 EQ PUSH2 0xBE JUMPI JUMPDEST PUSH1 0x0 DUP1 REVERT JUMPDEST PUSH2 0x76 PUSH1 0x4 DUP1 CALLDATASIZE SUB DUP2 ADD SWAP1 PUSH2 0x71 SWAP2 SWAP1 PUSH2 0x507 JUMP JUMPDEST PUSH2 0xEE JUMP JUMPDEST STOP JUMPDEST PUSH2 0x80 PUSH2 0x1AE JUMP JUMPDEST PUSH1 0x40 MLOAD PUSH2 0x8D SWAP2 SWAP1 PUSH2 0x639 JUMP JUMPDEST PUSH1 0x40 MLOAD DUP1 SWAP2 SUB SWAP1 RETURN JUMPDEST PUSH2 0x9E PUSH2 0x1D5 JUMP JUMPDEST STOP JUMPDEST PUSH2 0xA8 PUSH2 0x336 JUMP JUMPDEST PUSH1 0x40 MLOAD PUSH2 0xB5 SWAP2 SWAP1 PUSH2 0x639 JUMP JUMPDEST PUSH1 0x40 MLOAD DUP1 SWAP2 SUB SWAP1 RETURN JUMPDEST PUSH2 0xD8 PUSH1 0x4 DUP1 CALLDATASIZE SUB DUP2 ADD SWAP1 PUSH2 0xD3 SWAP2 SWAP1 PUSH2 0x4AD JUMP JUMPDEST PUSH2 0x33C JUMP JUMPDEST PUSH1 0x40 MLOAD PUSH2 0xE5 SWAP2 SWAP1 PUSH2 0x639 JUMP JUMPDEST PUSH1 0x40 MLOAD DUP1 SWAP2 SUB SWAP1 RETURN JUMPDEST PUSH32 0x0 PUSH20 0xFFFFFFFFFFFFFFFFFFFFFFFFFFFFFFFFFFFFFFFF AND CALLER PUSH20 0xFFFFFFFFFFFFFFFFFFFFFFFFFFFFFFFFFFFFFFFF AND EQ PUSH2 0x1A0 JUMPI CALLER PUSH32 0x0 PUSH1 0x40 MLOAD PUSH32 0x1CF993F400000000000000000000000000000000000000000000000000000000 DUP2 MSTORE PUSH1 0x4 ADD PUSH2 0x197 SWAP3 SWAP2 SWAP1 PUSH2 0x5BD JUMP JUMPDEST PUSH1 0x40 MLOAD DUP1 SWAP2 SUB SWAP1 REVERT JUMPDEST PUSH2 0x1AA DUP3 DUP3 PUSH2 0x360 JUMP JUMPDEST POP POP JUMP JUMPDEST PUSH1 0x0 PUSH1 0x6 PUSH1 0x0 DUP2 SLOAD DUP2 LT PUSH2 0x1C5 JUMPI PUSH2 0x1C4 PUSH2 0x74E JUMP JUMPDEST JUMPDEST SWAP1 PUSH1 0x0 MSTORE PUSH1 0x20 PUSH1 0x0 KECCAK256 ADD SLOAD SWAP1 POP SWAP1 JUMP JUMPDEST PUSH1 0x8 PUSH1 0x0 SWAP1 SLOAD SWAP1 PUSH2 0x100 EXP SWAP1 DIV PUSH20 0xFFFFFFFFFFFFFFFFFFFFFFFFFFFFFFFFFFFFFFFF AND PUSH20 0xFFFFFFFFFFFFFFFFFFFFFFFFFFFFFFFFFFFFFFFF AND CALLER PUSH20 0xFFFFFFFFFFFFFFFFFFFFFFFFFFFFFFFFFFFFFFFF AND EQ PUSH2 0x22F JUMPI PUSH1 0x0 DUP1 REVERT JUMPDEST PUSH1 0x0 DUP1 SLOAD SWAP1 PUSH2 0x100 EXP SWAP1 DIV PUSH20 0xFFFFFFFFFFFFFFFFFFFFFFFFFFFFFFFFFFFFFFFF AND PUSH20 0xFFFFFFFFFFFFFFFFFFFFFFFFFFFFFFFFFFFFFFFF AND PUSH4 0x5D3B1D30 PUSH1 0x4 SLOAD PUSH1 0x1 PUSH1 0x14 SWAP1 SLOAD SWAP1 PUSH2 0x100 EXP SWAP1 DIV PUSH8 0xFFFFFFFFFFFFFFFF AND PUSH1 0x5 PUSH1 0x4 SWAP1 SLOAD SWAP1 PUSH2 0x100 EXP SWAP1 DIV PUSH2 0xFFFF AND PUSH1 0x5 PUSH1 0x0 SWAP1 SLOAD SWAP1 PUSH2 0x100 EXP SWAP1 DIV PUSH4 0xFFFFFFFF AND PUSH1 0x5 PUSH1 0x6 SWAP1 SLOAD SWAP1 PUSH2 0x100 EXP SWAP1 DIV PUSH4 0xFFFFFFFF AND PUSH1 0x40 MLOAD DUP7 PUSH4 0xFFFFFFFF AND PUSH1 0xE0 SHL DUP2 MSTORE PUSH1 0x4 ADD PUSH2 0x2DC SWAP6 SWAP5 SWAP4 SWAP3 SWAP2 SWAP1 PUSH2 0x5E6 JUMP JUMPDEST PUSH1 0x20 PUSH1 0x40 MLOAD DUP1 DUP4 SUB DUP2 PUSH1 0x0 DUP8 DUP1 EXTCODESIZE ISZERO DUP1 ISZERO PUSH2 0x2F6 JUMPI PUSH1 0x0 DUP1 REVERT JUMPDEST POP GAS CALL ISZERO DUP1 ISZERO PUSH2 0x30A JUMPI RETURNDATASIZE PUSH1 0x0 DUP1 RETURNDATACOPY RETURNDATASIZE PUSH1 0x0 REVERT JUMPDEST POP POP POP POP PUSH1 0x40 MLOAD RETURNDATASIZE PUSH1 0x1F NOT PUSH1 0x1F DUP3 ADD AND DUP3 ADD DUP1 PUSH1 0x40 MSTORE POP DUP2 ADD SWAP1 PUSH2 0x32E SWAP2 SWAP1 PUSH2 0x4DA JUMP JUMPDEST PUSH1 0x7 DUP2 SWAP1 SSTORE POP JUMP JUMPDEST PUSH1 0x7 SLOAD DUP2 JUMP JUMPDEST PUSH1 0x6 DUP2 DUP2 SLOAD DUP2 LT PUSH2 0x34C JUMPI PUSH1 0x0 DUP1 REVERT JUMPDEST SWAP1 PUSH1 0x0 MSTORE PUSH1 0x20 PUSH1 0x0 KECCAK256 ADD PUSH1 0x0 SWAP2 POP SWAP1 POP SLOAD DUP2 JUMP JUMPDEST DUP1 PUSH1 0x6 SWAP1 DUP1 MLOAD SWAP1 PUSH1 0x20 ADD SWAP1 PUSH2 0x376 SWAP3 SWAP2 SWAP1 PUSH2 0x37B JUMP JUMPDEST POP POP POP JUMP JUMPDEST DUP3 DUP1 SLOAD DUP3 DUP3 SSTORE SWAP1 PUSH1 0x0 MSTORE PUSH1 0x20 PUSH1 0x0 KECCAK256 SWAP1 DUP2 ADD SWAP3 DUP3 ISZERO PUSH2 0x3B7 JUMPI SWAP2 PUSH1 0x20 MUL DUP3 ADD JUMPDEST DUP3 DUP2 GT ISZERO PUSH2 0x3B6 JUMPI DUP3 MLOAD DUP3 SSTORE SWAP2 PUSH1 0x20 ADD SWAP2 SWAP1 PUSH1 0x1 ADD SWAP1 PUSH2 0x39B JUMP JUMPDEST JUMPDEST POP SWAP1 POP PUSH2 0x3C4 SWAP2 SWAP1 PUSH2 0x3C8 JUMP JUMPDEST POP SWAP1 JUMP JUMPDEST JUMPDEST DUP1 DUP3 GT ISZERO PUSH2 0x3E1 JUMPI PUSH1 0x0 DUP2 PUSH1 0x0 SWAP1 SSTORE POP PUSH1 0x1 ADD PUSH2 0x3C9 JUMP JUMPDEST POP SWAP1 JUMP JUMPDEST PUSH1 0x0 PUSH2 0x3F8 PUSH2 0x3F3 DUP5 PUSH2 0x679 JUMP JUMPDEST PUSH2 0x654 JUMP JUMPDEST SWAP1 POP DUP1 DUP4 DUP3 MSTORE PUSH1 0x20 DUP3 ADD SWAP1 POP DUP3 DUP6 PUSH1 0x20 DUP7 MUL DUP3 ADD GT ISZERO PUSH2 0x41B JUMPI PUSH2 0x41A PUSH2 0x7B1 JUMP JUMPDEST JUMPDEST PUSH1 0x0 JUMPDEST DUP6 DUP2 LT ISZERO PUSH2 0x44B JUMPI DUP2 PUSH2 0x431 DUP9 DUP3 PUSH2 0x483 JUMP JUMPDEST DUP5 MSTORE PUSH1 0x20 DUP5 ADD SWAP4 POP PUSH1 0x20 DUP4 ADD SWAP3 POP POP PUSH1 0x1 DUP2 ADD SWAP1 POP PUSH2 0x41E JUMP JUMPDEST POP POP POP SWAP4 SWAP3 POP POP POP JUMP JUMPDEST PUSH1 0x0 DUP3 PUSH1 0x1F DUP4 ADD SLT PUSH2 0x46A JUMPI PUSH2 0x469 PUSH2 0x7AC JUMP JUMPDEST JUMPDEST DUP2 CALLDATALOAD PUSH2 0x47A DUP5 DUP3 PUSH1 0x20 DUP7 ADD PUSH2 0x3E5 JUMP JUMPDEST SWAP2 POP POP SWAP3 SWAP2 POP POP JUMP JUMPDEST PUSH1 0x0 DUP2 CALLDATALOAD SWAP1 POP PUSH2 0x492 DUP2 PUSH2 0x7D1 JUMP JUMPDEST SWAP3 SWAP2 POP POP JUMP JUMPDEST PUSH1 0x0 DUP2 MLOAD SWAP1 POP PUSH2 0x4A7 DUP2 PUSH2 0x7D1 JUMP JUMPDEST SWAP3 SWAP2 POP POP JUMP JUMPDEST PUSH1 0x0 PUSH1 0x20 DUP3 DUP5 SUB SLT ISZERO PUSH2 0x4C3 JUMPI PUSH2 0x4C2 PUSH2 0x7BB JUMP JUMPDEST JUMPDEST PUSH1 0x0 PUSH2 0x4D1 DUP5 DUP3 DUP6 ADD PUSH2 0x483 JUMP JUMPDEST SWAP2 POP POP SWAP3 SWAP2 POP POP JUMP JUMPDEST PUSH1 0x0 PUSH1 0x20 DUP3 DUP5 SUB SLT ISZERO PUSH2 0x4F0 JUMPI PUSH2 0x4EF PUSH2 0x7BB JUMP JUMPDEST JUMPDEST PUSH1 0x0 PUSH2 0x4FE DUP5 DUP3 DUP6 ADD PUSH2 0x498 JUMP JUMPDEST SWAP2 POP POP SWAP3 SWAP2 POP POP JUMP JUMPDEST PUSH1 0x0 DUP1 PUSH1 0x40 DUP4 DUP6 SUB SLT ISZERO PUSH2 0x51E JUMPI PUSH2 0x51D PUSH2 0x7BB JUMP JUMPDEST JUMPDEST PUSH1 0x0 PUSH2 0x52C DUP6 DUP3 DUP7 ADD PUSH2 0x483 JUMP JUMPDEST SWAP3 POP POP PUSH1 0x20 DUP4 ADD CALLDATALOAD PUSH8 0xFFFFFFFFFFFFFFFF DUP2 GT ISZERO PUSH2 0x54D JUMPI PUSH2 0x54C PUSH2 0x7B6 JUMP JUMPDEST JUMPDEST PUSH2 0x559 DUP6 DUP3 DUP7 ADD PUSH2 0x455 JUMP JUMPDEST SWAP2 POP POP SWAP3 POP SWAP3 SWAP1 POP JUMP JUMPDEST PUSH2 0x56C DUP2 PUSH2 0x6A5 JUMP JUMPDEST DUP3 MSTORE POP POP JUMP JUMPDEST PUSH2 0x57B DUP2 PUSH2 0x6B7 JUMP JUMPDEST DUP3 MSTORE POP POP JUMP JUMPDEST PUSH2 0x58A DUP2 PUSH2 0x6C1 JUMP JUMPDEST DUP3 MSTORE POP POP JUMP JUMPDEST PUSH2 0x599 DUP2 PUSH2 0x6EF JUMP JUMPDEST DUP3 MSTORE POP POP JUMP JUMPDEST PUSH2 0x5A8 DUP2 PUSH2 0x6F9 JUMP JUMPDEST DUP3 MSTORE POP POP JUMP JUMPDEST PUSH2 0x5B7 DUP2 PUSH2 0x709 JUMP JUMPDEST DUP3 MSTORE POP POP JUMP JUMPDEST PUSH1 0x0 PUSH1 0x40 DUP3 ADD SWAP1 POP PUSH2 0x5D2 PUSH1 0x0 DUP4 ADD DUP6 PUSH2 0x563 JUMP JUMPDEST PUSH2 0x5DF PUSH1 0x20 DUP4 ADD DUP5 PUSH2 0x563 JUMP JUMPDEST SWAP4 SWAP3 POP POP POP JUMP JUMPDEST PUSH1 0x0 PUSH1 0xA0 DUP3 ADD SWAP1 POP PUSH2 0x5FB PUSH1 0x0 DUP4 ADD DUP9 PUSH2 0x572 JUMP JUMPDEST PUSH2 0x608 PUSH1 0x20 DUP4 ADD DUP8 PUSH2 0x5AE JUMP JUMPDEST PUSH2 0x615 PUSH1 0x40 DUP4 ADD DUP7 PUSH2 0x581 JUMP JUMPDEST PUSH2 0x622 PUSH1 0x60 DUP4 ADD DUP6 PUSH2 0x59F JUMP JUMPDEST PUSH2 0x62F PUSH1 0x80 DUP4 ADD DUP5 PUSH2 0x59F JUMP JUMPDEST SWAP7 SWAP6 POP POP POP POP POP POP JUMP JUMPDEST PUSH1 0x0 PUSH1 0x20 DUP3 ADD SWAP1 POP PUSH2 0x64E PUSH1 0x0 DUP4 ADD DUP5 PUSH2 0x590 JUMP JUMPDEST SWAP3 SWAP2 POP POP JUMP JUMPDEST PUSH1 0x0 PUSH2 0x65E PUSH2 0x66F JUMP JUMPDEST SWAP1 POP PUSH2 0x66A DUP3 DUP3 PUSH2 0x71D JUMP JUMPDEST SWAP2 SWAP1 POP JUMP JUMPDEST PUSH1 0x0 PUSH1 0x40 MLOAD SWAP1 POP SWAP1 JUMP JUMPDEST PUSH1 0x0 PUSH8 0xFFFFFFFFFFFFFFFF DUP3 GT ISZERO PUSH2 0x694 JUMPI PUSH2 0x693 PUSH2 0x77D JUMP JUMPDEST JUMPDEST PUSH1 0x20 DUP3 MUL SWAP1 POP PUSH1 0x20 DUP2 ADD SWAP1 POP SWAP2 SWAP1 POP JUMP JUMPDEST PUSH1 0x0 PUSH2 0x6B0 DUP3 PUSH2 0x6CF JUMP JUMPDEST SWAP1 POP SWAP2 SWAP1 POP JUMP JUMPDEST PUSH1 0x0 DUP2 SWAP1 POP SWAP2 SWAP1 POP JUMP JUMPDEST PUSH1 0x0 PUSH2 0xFFFF DUP3 AND SWAP1 POP SWAP2 SWAP1 POP JUMP JUMPDEST PUSH1 0x0 PUSH20 0xFFFFFFFFFFFFFFFFFFFFFFFFFFFFFFFFFFFFFFFF DUP3 AND SWAP1 POP SWAP2 SWAP1 POP JUMP JUMPDEST PUSH1 0x0 DUP2 SWAP1 POP SWAP2 SWAP1 POP JUMP JUMPDEST PUSH1 0x0 PUSH4 0xFFFFFFFF DUP3 AND SWAP1 POP SWAP2 SWAP1 POP JUMP JUMPDEST PUSH1 0x0 PUSH8 0xFFFFFFFFFFFFFFFF DUP3 AND SWAP1 POP SWAP2 SWAP1 POP JUMP JUMPDEST PUSH2 0x726 DUP3 PUSH2 0x7C0 JUMP JUMPDEST DUP2 ADD DUP2 DUP2 LT PUSH8 0xFFFFFFFFFFFFFFFF DUP3 GT OR ISZERO PUSH2 0x745 JUMPI PUSH2 0x744 PUSH2 0x77D JUMP JUMPDEST JUMPDEST DUP1 PUSH1 0x40 MSTORE POP POP POP JUMP JUMPDEST PUSH32 0x4E487B7100000000000000000000000000000000000000000000000000000000 PUSH1 0x0 MSTORE PUSH1 0x32 PUSH1 0x4 MSTORE PUSH1 0x24 PUSH1 0x0 REVERT JUMPDEST PUSH32 0x4E487B7100000000000000000000000000000000000000000000000000000000 PUSH1 0x0 MSTORE PUSH1 0x41 PUSH1 0x4 MSTORE PUSH1 0x24 PUSH1 0x0 REVERT JUMPDEST PUSH1 0x0 DUP1 REVERT JUMPDEST PUSH1 0x0 DUP1 REVERT JUMPDEST PUSH1 0x0 DUP1 REVERT JUMPDEST PUSH1 0x0 DUP1 REVERT JUMPDEST PUSH1 0x0 PUSH1 0x1F NOT PUSH1 0x1F DUP4 ADD AND SWAP1 POP SWAP2 SWAP1 POP JUMP JUMPDEST PUSH2 0x7DA DUP2 PUSH2 0x6EF JUMP JUMPDEST DUP2 EQ PUSH2 0x7E5 JUMPI PUSH1 0x0 DUP1 REVERT JUMPDEST POP JUMP INVALID LOG2 PUSH5 0x6970667358 0x22 SLT KECCAK256 0xE3 0xC1 SGT 0x4A SWAP5 BALANCE 0xD1 0x4C 0xC1 0xE3 0x2B CALLCODE DUP11 0xD1 DUP7 SWAP12 DUP5 0xAD DUP10 PUSH7 0x2249841197B3B1 DUP13 0xF6 0xD2 DUP6 0x1E PUSH5 0x736F6C6343 STOP ADDMOD SMOD STOP CALLER "
		},
		"gasEstimates": {
			"creation": {
				"codeDepositCost": "415600",
				"executionCost": "infinite",
				"totalCost": "infinite"
			},
			"external": {
				"getRandomWordYo()": "4617",
				"rawFulfillRandomWords(uint256,uint256[])": "infinite",
				"requestRandomWords()": "infinite",
				"s_randomWords(uint256)": "infinite",
				"s_requestId()": "2473"
			},
			"internal": {
				"fulfillRandomWords(uint256,uint256[] memory)": "infinite"
			}
		},
		"methodIdentifiers": {
			"getRandomWordYo()": "939a1946",
			"rawFulfillRandomWords(uint256,uint256[])": "1fe543e3",
			"requestRandomWords()": "e0c86289",
			"s_randomWords(uint256)": "f6eaffc8",
			"s_requestId()": "e89e106a"
		}
	},
	"abi": [
		{
			"inputs": [
				{
					"internalType": "uint64",
					"name": "subscriptionId",
					"type": "uint64"
				}
			],
			"stateMutability": "nonpayable",
			"type": "constructor"
		},
		{
			"inputs": [
				{
					"internalType": "address",
					"name": "have",
					"type": "address"
				},
				{
					"internalType": "address",
					"name": "want",
					"type": "address"
				}
			],
			"name": "OnlyCoordinatorCanFulfill",
			"type": "error"
		},
		{
			"inputs": [],
			"name": "getRandomWordYo",
			"outputs": [
				{
					"internalType": "uint256",
					"name": "",
					"type": "uint256"
				}
			],
			"stateMutability": "view",
			"type": "function"
		},
		{
			"inputs": [
				{
					"internalType": "uint256",
					"name": "requestId",
					"type": "uint256"
				},
				{
					"internalType": "uint256[]",
					"name": "randomWords",
					"type": "uint256[]"
				}
			],
			"name": "rawFulfillRandomWords",
			"outputs": [],
			"stateMutability": "nonpayable",
			"type": "function"
		},
		{
			"inputs": [],
			"name": "requestRandomWords",
			"outputs": [],
			"stateMutability": "nonpayable",
			"type": "function"
		},
		{
			"inputs": [
				{
					"internalType": "uint256",
					"name": "",
					"type": "uint256"
				}
			],
			"name": "s_randomWords",
			"outputs": [
				{
					"internalType": "uint256",
					"name": "",
					"type": "uint256"
				}
			],
			"stateMutability": "view",
			"type": "function"
		},
		{
			"inputs": [],
			"name": "s_requestId",
			"outputs": [
				{
					"internalType": "uint256",
					"name": "",
					"type": "uint256"
				}
			],
			"stateMutability": "view",
			"type": "function"
		}
	]
}